{
	"data": {
		"bytecode": {
			"linkReferences": {},
			"object": "608060405234801561001057600080fd5b5061017f806100206000396000f3fe6080604052600436106100295760003560e01c80634e71d92d1461002e578063b0a1df4214610045575b600080fd5b34801561003a57600080fd5b5061004361004f565b005b61004d6100b1565b005b620d2f0060005461006091906100ba565b4211156100af573373ffffffffffffffffffffffffffffffffffffffff166108fc479081150290604051600060405180830381858888f193505050501580156100ad573d6000803e3d6000fd5b505b565b42600081905550565b60006100c582610110565b91506100d083610110565b9250827fffffffffffffffffffffffffffffffffffffffffffffffffffffffffffffffff038211156101055761010461011a565b5b828201905092915050565b6000819050919050565b7f4e487b7100000000000000000000000000000000000000000000000000000000600052601160045260246000fdfea26469706673582212209398acd266056f1c24f8dab09b19877777abbfecfabbfe8a16894b0e18de946164736f6c63430008000033",
			"opcodes": "PUSH1 0x80 PUSH1 0x40 MSTORE CALLVALUE DUP1 ISZERO PUSH2 0x10 JUMPI PUSH1 0x0 DUP1 REVERT JUMPDEST POP PUSH2 0x17F DUP1 PUSH2 0x20 PUSH1 0x0 CODECOPY PUSH1 0x0 RETURN INVALID PUSH1 0x80 PUSH1 0x40 MSTORE PUSH1 0x4 CALLDATASIZE LT PUSH2 0x29 JUMPI PUSH1 0x0 CALLDATALOAD PUSH1 0xE0 SHR DUP1 PUSH4 0x4E71D92D EQ PUSH2 0x2E JUMPI DUP1 PUSH4 0xB0A1DF42 EQ PUSH2 0x45 JUMPI JUMPDEST PUSH1 0x0 DUP1 REVERT JUMPDEST CALLVALUE DUP1 ISZERO PUSH2 0x3A JUMPI PUSH1 0x0 DUP1 REVERT JUMPDEST POP PUSH2 0x43 PUSH2 0x4F JUMP JUMPDEST STOP JUMPDEST PUSH2 0x4D PUSH2 0xB1 JUMP JUMPDEST STOP JUMPDEST PUSH3 0xD2F00 PUSH1 0x0 SLOAD PUSH2 0x60 SWAP2 SWAP1 PUSH2 0xBA JUMP JUMPDEST TIMESTAMP GT ISZERO PUSH2 0xAF JUMPI CALLER PUSH20 0xFFFFFFFFFFFFFFFFFFFFFFFFFFFFFFFFFFFFFFFF AND PUSH2 0x8FC SELFBALANCE SWAP1 DUP2 ISZERO MUL SWAP1 PUSH1 0x40 MLOAD PUSH1 0x0 PUSH1 0x40 MLOAD DUP1 DUP4 SUB DUP2 DUP6 DUP9 DUP9 CALL SWAP4 POP POP POP POP ISZERO DUP1 ISZERO PUSH2 0xAD JUMPI RETURNDATASIZE PUSH1 0x0 DUP1 RETURNDATACOPY RETURNDATASIZE PUSH1 0x0 REVERT JUMPDEST POP JUMPDEST JUMP JUMPDEST TIMESTAMP PUSH1 0x0 DUP2 SWAP1 SSTORE POP JUMP JUMPDEST PUSH1 0x0 PUSH2 0xC5 DUP3 PUSH2 0x110 JUMP JUMPDEST SWAP2 POP PUSH2 0xD0 DUP4 PUSH2 0x110 JUMP JUMPDEST SWAP3 POP DUP3 PUSH32 0xFFFFFFFFFFFFFFFFFFFFFFFFFFFFFFFFFFFFFFFFFFFFFFFFFFFFFFFFFFFFFFFF SUB DUP3 GT ISZERO PUSH2 0x105 JUMPI PUSH2 0x104 PUSH2 0x11A JUMP JUMPDEST JUMPDEST DUP3 DUP3 ADD SWAP1 POP SWAP3 SWAP2 POP POP JUMP JUMPDEST PUSH1 0x0 DUP2 SWAP1 POP SWAP2 SWAP1 POP JUMP JUMPDEST PUSH32 0x4E487B7100000000000000000000000000000000000000000000000000000000 PUSH1 0x0 MSTORE PUSH1 0x11 PUSH1 0x4 MSTORE PUSH1 0x24 PUSH1 0x0 REVERT INVALID LOG2 PUSH5 0x6970667358 0x22 SLT KECCAK256 SWAP4 SWAP9 0xAC 0xD2 PUSH7 0x56F1C24F8DAB0 SWAP12 NOT DUP8 PUSH24 0x77ABBFECFABBFE8A16894B0E18DE946164736F6C63430008 STOP STOP CALLER "
		},
		"gasEstimates": {
			"creation": {
				"codeDepositCost": "76600",
				"executionCost": "123",
				"totalCost": "76723"
			},
			"external": {
				"claim()": "infinite",
				"timePayout()": "20133"
			}
		},
		"methodIdentifiers": {
			"claim()": "4e71d92d",
			"timePayout()": "b0a1df42"
		}
	},
	"abi": [
		{
			"inputs": [],
			"name": "claim",
			"outputs": [],
			"stateMutability": "nonpayable",
			"type": "function"
		},
		{
			"inputs": [],
			"name": "timePayout",
			"outputs": [],
			"stateMutability": "payable",
			"type": "function"
		}
	]
}