{
    "contractName": "CollateralLoan",
    "abi": [
        {
            "inputs": [
                {
                    "internalType": "contract IERC20Token",
                    "name": "_token",
                    "type": "address"
                },
                {
                    "internalType": "uint256",
                    "name": "_collateralAmount",
                    "type": "uint256"
                },
                {
                    "internalType": "uint256",
                    "name": "_loanAmount",
                    "type": "uint256"
                },
                {
                    "internalType": "uint256",
                    "name": "_payoffAmount",
                    "type": "uint256"
                },
                {
                    "internalType": "uint256",
                    "name": "_loanDuration",
                    "type": "uint256"
                }
            ],
            "stateMutability": "nonpayable",
            "type": "constructor"
        },
        {
            "anonymous": false,
            "inputs": [
                {
                    "indexed": false,
                    "internalType": "address",
                    "name": "loan",
                    "type": "address"
                }
            ],
            "name": "LoanRequestAccepted",
            "type": "event"
        },
        {
            "inputs": [],
            "name": "borrower",
            "outputs": [
                {
                    "internalType": "address",
                    "name": "",
                    "type": "address"
                }
            ],
            "stateMutability": "view",
            "type": "function"
        },
        {
            "inputs": [],
            "name": "collateralAmount",
            "outputs": [
                {
                    "internalType": "uint256",
                    "name": "",
                    "type": "uint256"
                }
            ],
            "stateMutability": "view",
            "type": "function"
        },
        {
            "inputs": [],
            "name": "lendEther",
            "outputs": [],
            "stateMutability": "payable",
            "type": "function"
        },
        {
            "inputs": [],
            "name": "loan",
            "outputs": [
                {
                    "internalType": "contract Loan",
                    "name": "",
                    "type": "address"
                }
            ],
            "stateMutability": "view",
            "type": "function"
        },
        {
            "inputs": [],
            "name": "loanAmount",
            "outputs": [
                {
                    "internalType": "uint256",
                    "name": "",
                    "type": "uint256"
                }
            ],
            "stateMutability": "view",
            "type": "function"
        },
        {
            "inputs": [],
            "name": "loanDuration",
            "outputs": [
                {
                    "internalType": "uint256",
                    "name": "",
                    "type": "uint256"
                }
            ],
            "stateMutability": "view",
            "type": "function"
        },
        {
            "inputs": [],
            "name": "payoffAmount",
            "outputs": [
                {
                    "internalType": "uint256",
                    "name": "",
                    "type": "uint256"
                }
            ],
            "stateMutability": "view",
            "type": "function"
        },
        {
            "inputs": [],
            "name": "token",
            "outputs": [
                {
                    "internalType": "contract IERC20Token",
                    "name": "",
                    "type": "address"
                }
            ],
            "stateMutability": "view",
            "type": "function"
        }
    ],
    "bytecode": "6080604052600080546001600160a01b0319163317905534801561002257600080fd5b506040516108ef3803806108ef83398101604081905261004191610076565b600180546001600160a01b0319166001600160a01b0396909616959095179094556002929092556003556004556005556100cb565b600080600080600060a0868803121561008e57600080fd5b85516001600160a01b03811681146100a557600080fd5b602087015160408801516060890151608090990151929a91995097965090945092505050565b610815806100da6000396000f3fe60806040526004361061007b5760003560e01c8063be1abba51161004e578063be1abba514610101578063d285b7b414610117578063f5521bf114610137578063fc0c546a1461014d57600080fd5b806376e40c9c146100805780637df1f1b91461008a57806392d09ceb146100c75780639d585f7f146100eb575b600080fd5b61008861016d565b005b34801561009657600080fd5b506000546100aa906001600160a01b031681565b6040516001600160a01b0390911681526020015b60405180910390f35b3480156100d357600080fd5b506100dd60025481565b6040519081526020016100be565b3480156100f757600080fd5b506100dd60035481565b34801561010d57600080fd5b506100dd60045481565b34801561012357600080fd5b506006546100aa906001600160a01b031681565b34801561014357600080fd5b506100dd60055481565b34801561015957600080fd5b506001546100aa906001600160a01b031681565b600354341461017b57600080fd5b60005460015460025460045460055460405133956001600160a01b039081169516939291906101a99061031d565b6001600160a01b03968716815294861660208601529490921660408401526060830152608082015260a081019190915260c001604051809103906000f0801580156101f8573d6000803e3d6000fd5b50600680546001600160a01b0319166001600160a01b039283169081179091556001546000546002546040516323b872dd60e01b8152918516600483015260248201939093526044810192909252909116906323b872dd906064016020604051808303816000875af1158015610272573d6000803e3d6000fd5b505050506040513d601f19601f82011682018060405250810190610296919061032a565b61029f57600080fd5b600080546003546040516001600160a01b039092169281156108fc029290818181858888f193505050501580156102da573d6000803e3d6000fd5b506006546040516001600160a01b0390911681527f9f677f64e89085ceeb9764ab56960049bf27d6c283ce7a1fd757cac5648bb9199060200160405180910390a1565b61048c8061035483390190565b60006020828403121561033c57600080fd5b8151801515811461034c57600080fd5b939250505056fe608060405234801561001057600080fd5b5060405161048c38038061048c83398101604081905261002f916100a7565b600080546001600160a01b038089166001600160a01b031992831617909255600180548884169083161790556002805492871692909116919091179055600383905560048290556100808142610110565b60055550610136945050505050565b6001600160a01b03811681146100a457600080fd5b50565b60008060008060008060c087890312156100c057600080fd5b86516100cb8161008f565b60208801519096506100dc8161008f565b60408801519095506100ed8161008f565b80945050606087015192506080870151915060a087015190509295509295509295565b6000821982111561013157634e487b7160e01b600052601160045260246000fd5b500190565b610347806101456000396000f3fe60806040526004361061007b5760003560e01c806392d09ceb1161004e57806392d09ceb14610100578063bcead63e14610116578063be1abba514610136578063fc0c546a1461014c57600080fd5b8063472eb03d14610080578063786716fe1461008a57806379cc90c4146100b35780637df1f1b9146100c8575b600080fd5b61008861016c565b005b34801561009657600080fd5b506100a060055481565b6040519081526020015b60405180910390f35b3480156100bf57600080fd5b50610088610246565b3480156100d457600080fd5b506001546100e8906001600160a01b031681565b6040516001600160a01b0390911681526020016100aa565b34801561010c57600080fd5b506100a060035481565b34801561012257600080fd5b506000546100e8906001600160a01b031681565b34801561014257600080fd5b506100a060045481565b34801561015857600080fd5b506002546100e8906001600160a01b031681565b60055442111561017b57600080fd5b600454341461018957600080fd5b60025460015460035460405163a9059cbb60e01b81526001600160a01b039283166004820152602481019190915291169063a9059cbb906044016020604051808303816000875af11580156101e2573d6000803e3d6000fd5b505050506040513d601f19601f8201168201806040525081019061020691906102e8565b61020f57600080fd5b6040517f8bb0a19f3c449c5f333f46e05a21a731e09b6f6bd145ee30e45d3e74e296990b90600090a16000546001600160a01b0316ff5b600554421161025457600080fd5b60025460005460035460405163a9059cbb60e01b81526001600160a01b039283166004820152602481019190915291169063a9059cbb906044016020604051808303816000875af11580156102ad573d6000803e3d6000fd5b505050506040513d601f19601f820116820180604052508101906102d191906102e8565b6102da57600080fd5b6000546001600160a01b0316ff5b6000602082840312156102fa57600080fd5b8151801515811461030a57600080fd5b939250505056fea264697066735822122035c9c971dee4d0ef0f14662d4ef38b52307ec95a97d48235105310410979f0fd64736f6c634300080b0033a2646970667358221220649c846dd3c53ca8c7fb81870e19ca70a3b39d69efc1007d19e24991de60402d64736f6c634300080b0033",
    "sourcePath": "c:/Users/H4NKYUL/Documents/sprint-project/solidity-project/contracts/CollateralLoan.sol",
    "compiler": {
        "name": "solc",
        "version": "0.8.11+commit.d7f03943"
    },
    "functionHashes": {
        "borrower()": "7df1f1b9",
        "collateralAmount()": "92d09ceb",
        "lendEther()": "76e40c9c",
        "loan()": "d285b7b4",
        "loanAmount()": "9d585f7f",
        "loanDuration()": "f5521bf1",
        "payoffAmount()": "be1abba5",
        "token()": "fc0c546a"
    },
    "gasEstimates": {
        "creation": {
            "codeDepositCost": "413800",
            "executionCost": "infinite",
            "totalCost": "infinite"
        },
        "external": {
            "borrower()": "2349",
            "collateralAmount()": "2340",
            "lendEther()": "infinite",
            "loan()": "2348",
            "loanAmount()": "2362",
            "loanDuration()": "2339",
            "payoffAmount()": "2295",
            "token()": "2392"
        }
    }
}