{
    "contractName": "Loan",
    "abi": [
        {
            "inputs": [
                {
                    "internalType": "address",
                    "name": "_lender",
                    "type": "address"
                },
                {
                    "internalType": "address",
                    "name": "_borrower",
                    "type": "address"
                },
                {
                    "internalType": "contract IERC20Token",
                    "name": "_token",
                    "type": "address"
                },
                {
                    "internalType": "uint256",
                    "name": "_collateralAmount",
                    "type": "uint256"
                },
                {
                    "internalType": "uint256",
                    "name": "_payoffAmount",
                    "type": "uint256"
                },
                {
                    "internalType": "uint256",
                    "name": "loanDuration",
                    "type": "uint256"
                }
            ],
            "stateMutability": "nonpayable",
            "type": "constructor"
        },
        {
            "anonymous": false,
            "inputs": [],
            "name": "LoanPaid",
            "type": "event"
        },
        {
            "inputs": [],
            "name": "borrower",
            "outputs": [
                {
                    "internalType": "address",
                    "name": "",
                    "type": "address"
                }
            ],
            "stateMutability": "view",
            "type": "function"
        },
        {
            "inputs": [],
            "name": "collateralAmount",
            "outputs": [
                {
                    "internalType": "uint256",
                    "name": "",
                    "type": "uint256"
                }
            ],
            "stateMutability": "view",
            "type": "function"
        },
        {
            "inputs": [],
            "name": "dueDate",
            "outputs": [
                {
                    "internalType": "uint256",
                    "name": "",
                    "type": "uint256"
                }
            ],
            "stateMutability": "view",
            "type": "function"
        },
        {
            "inputs": [],
            "name": "lender",
            "outputs": [
                {
                    "internalType": "address",
                    "name": "",
                    "type": "address"
                }
            ],
            "stateMutability": "view",
            "type": "function"
        },
        {
            "inputs": [],
            "name": "payLoan",
            "outputs": [],
            "stateMutability": "payable",
            "type": "function"
        },
        {
            "inputs": [],
            "name": "payoffAmount",
            "outputs": [
                {
                    "internalType": "uint256",
                    "name": "",
                    "type": "uint256"
                }
            ],
            "stateMutability": "view",
            "type": "function"
        },
        {
            "inputs": [],
            "name": "repossess",
            "outputs": [],
            "stateMutability": "nonpayable",
            "type": "function"
        },
        {
            "inputs": [],
            "name": "token",
            "outputs": [
                {
                    "internalType": "contract IERC20Token",
                    "name": "",
                    "type": "address"
                }
            ],
            "stateMutability": "view",
            "type": "function"
        }
    ],
    "bytecode": "608060405234801561001057600080fd5b5060405161048c38038061048c83398101604081905261002f916100a7565b600080546001600160a01b038089166001600160a01b031992831617909255600180548884169083161790556002805492871692909116919091179055600383905560048290556100808142610110565b60055550610136945050505050565b6001600160a01b03811681146100a457600080fd5b50565b60008060008060008060c087890312156100c057600080fd5b86516100cb8161008f565b60208801519096506100dc8161008f565b60408801519095506100ed8161008f565b80945050606087015192506080870151915060a087015190509295509295509295565b6000821982111561013157634e487b7160e01b600052601160045260246000fd5b500190565b610347806101456000396000f3fe60806040526004361061007b5760003560e01c806392d09ceb1161004e57806392d09ceb14610100578063bcead63e14610116578063be1abba514610136578063fc0c546a1461014c57600080fd5b8063472eb03d14610080578063786716fe1461008a57806379cc90c4146100b35780637df1f1b9146100c8575b600080fd5b61008861016c565b005b34801561009657600080fd5b506100a060055481565b6040519081526020015b60405180910390f35b3480156100bf57600080fd5b50610088610246565b3480156100d457600080fd5b506001546100e8906001600160a01b031681565b6040516001600160a01b0390911681526020016100aa565b34801561010c57600080fd5b506100a060035481565b34801561012257600080fd5b506000546100e8906001600160a01b031681565b34801561014257600080fd5b506100a060045481565b34801561015857600080fd5b506002546100e8906001600160a01b031681565b60055442111561017b57600080fd5b600454341461018957600080fd5b60025460015460035460405163a9059cbb60e01b81526001600160a01b039283166004820152602481019190915291169063a9059cbb906044016020604051808303816000875af11580156101e2573d6000803e3d6000fd5b505050506040513d601f19601f8201168201806040525081019061020691906102e8565b61020f57600080fd5b6040517f8bb0a19f3c449c5f333f46e05a21a731e09b6f6bd145ee30e45d3e74e296990b90600090a16000546001600160a01b0316ff5b600554421161025457600080fd5b60025460005460035460405163a9059cbb60e01b81526001600160a01b039283166004820152602481019190915291169063a9059cbb906044016020604051808303816000875af11580156102ad573d6000803e3d6000fd5b505050506040513d601f19601f820116820180604052508101906102d191906102e8565b6102da57600080fd5b6000546001600160a01b0316ff5b6000602082840312156102fa57600080fd5b8151801515811461030a57600080fd5b939250505056fea264697066735822122035c9c971dee4d0ef0f14662d4ef38b52307ec95a97d48235105310410979f0fd64736f6c634300080b0033",
    "sourcePath": "c:/Users/H4NKYUL/Documents/sprint-project/solidity-project/contracts/Loan.sol",
    "compiler": {
        "name": "solc",
        "version": "0.8.11+commit.d7f03943"
    },
    "functionHashes": {
        "borrower()": "7df1f1b9",
        "collateralAmount()": "92d09ceb",
        "dueDate()": "786716fe",
        "lender()": "bcead63e",
        "payLoan()": "472eb03d",
        "payoffAmount()": "be1abba5",
        "repossess()": "79cc90c4",
        "token()": "fc0c546a"
    },
    "gasEstimates": {
        "creation": {
            "codeDepositCost": "167800",
            "executionCost": "infinite",
            "totalCost": "infinite"
        },
        "external": {
            "borrower()": "2404",
            "collateralAmount()": "2284",
            "dueDate()": "2307",
            "lender()": "2359",
            "payLoan()": "infinite",
            "payoffAmount()": "2328",
            "repossess()": "infinite",
            "token()": "2403"
        }
    }
}