{
    "contractName": "PeriodicLoan",
    "abi": [
        {
            "inputs": [
                {
                    "internalType": "address",
                    "name": "_lender",
                    "type": "address"
                },
                {
                    "internalType": "address",
                    "name": "_borrower",
                    "type": "address"
                },
                {
                    "internalType": "uint256",
                    "name": "interestRateNumerator",
                    "type": "uint256"
                },
                {
                    "internalType": "uint256",
                    "name": "interestRateDenominator",
                    "type": "uint256"
                },
                {
                    "internalType": "uint256",
                    "name": "_paymentPeriod",
                    "type": "uint256"
                },
                {
                    "internalType": "uint256",
                    "name": "_minimumPayment",
                    "type": "uint256"
                },
                {
                    "internalType": "uint256",
                    "name": "principal",
                    "type": "uint256"
                },
                {
                    "internalType": "contract IERC20Token",
                    "name": "_token",
                    "type": "address"
                },
                {
                    "internalType": "uint256",
                    "name": "units",
                    "type": "uint256"
                }
            ],
            "stateMutability": "nonpayable",
            "type": "constructor"
        },
        {
            "inputs": [],
            "name": "dueDate",
            "outputs": [
                {
                    "internalType": "uint256",
                    "name": "",
                    "type": "uint256"
                }
            ],
            "stateMutability": "view",
            "type": "function"
        },
        {
            "inputs": [],
            "name": "interestRate",
            "outputs": [
                {
                    "internalType": "uint256",
                    "name": "numerator",
                    "type": "uint256"
                },
                {
                    "internalType": "uint256",
                    "name": "denominator",
                    "type": "uint256"
                }
            ],
            "stateMutability": "view",
            "type": "function"
        },
        {
            "inputs": [],
            "name": "makePayment",
            "outputs": [],
            "stateMutability": "payable",
            "type": "function"
        },
        {
            "inputs": [],
            "name": "missedPayment",
            "outputs": [],
            "stateMutability": "nonpayable",
            "type": "function"
        },
        {
            "inputs": [],
            "name": "remainingBalance",
            "outputs": [
                {
                    "internalType": "uint256",
                    "name": "",
                    "type": "uint256"
                }
            ],
            "stateMutability": "view",
            "type": "function"
        },
        {
            "inputs": [],
            "name": "returnCollateral",
            "outputs": [],
            "stateMutability": "nonpayable",
            "type": "function"
        },
        {
            "inputs": [],
            "name": "withdraw",
            "outputs": [],
            "stateMutability": "nonpayable",
            "type": "function"
        }
    ],
    "bytecode": "608060405234801561001057600080fd5b5060405161081238038061081283398101604081905261002f91610157565b600080546001600160a01b03808c166001600160a01b0319928316178355600180548c8316908416179055604080518082019091528a815260200189905260028a90556003899055600588905560078790556006869055600880549186169190921617905560098290556100a382866101f6565b9050600754600954826100b69190610215565b1461011f5760405162461bcd60e51b815260206004820152602f60248201527f6d696e696d756d5061796d656e74202a20636f6c6c61746572616c506572506160448201526e796d656e74206f766572666c6f777360881b606482015260840160405180910390fd5b60055461012c9042610237565b6004555061024f98505050505050505050565b6001600160a01b038116811461015457600080fd5b50565b60008060008060008060008060006101208a8c03121561017657600080fd5b89516101818161013f565b60208b01519099506101928161013f565b8098505060408a0151965060608a0151955060808a0151945060a08a0151935060c08a0151925060e08a01516101c78161013f565b809250506101008a015190509295985092959850929598565b634e487b7160e01b600052601160045260246000fd5b6000816000190483118215151615610210576102106101e0565b500290565b60008261023257634e487b7160e01b600052601260045260246000fd5b500490565b6000821982111561024a5761024a6101e0565b500190565b6105b48061025e6000396000f3fe6080604052600436106100705760003560e01c80637c3a00fd1161004e5780637c3a00fd146100ca578063c7d5f598146100fa578063d8d797001461010f578063da25de3c1461011757600080fd5b80633ccfd60b1461007557806344ed456f1461008c578063786716fe146100a1575b600080fd5b34801561008157600080fd5b5061008a61012d565b005b34801561009857600080fd5b5061008a61016a565b3480156100ad57600080fd5b506100b760045481565b6040519081526020015b60405180910390f35b3480156100d657600080fd5b506002546003546100e5919082565b604080519283526020830191909152016100c1565b34801561010657600080fd5b5061008a61026a565b61008a6102b7565b34801561012357600080fd5b506100b760065481565b600080546040516001600160a01b03909116914780156108fc02929091818181858888f19350505050158015610167573d6000803e3d6000fd5b50565b6006541561017757600080fd5b6008546040516370a0823160e01b81523060048201526000916001600160a01b0316906370a08231906024016020604051808303816000875af11580156101c2573d6000803e3d6000fd5b505050506040513d601f19601f820116820180604052508101906101e691906104bd565b60085460015460405163a9059cbb60e01b81526001600160a01b03918216600482015260248101849052929350169063a9059cbb906044016020604051808303816000875af115801561023d573d6000803e3d6000fd5b505050506040513d601f19601f8201168201806040525081019061026191906104d6565b61016757600080fd5b600454421161027857600080fd5b60008061028660075461031a565b600654919350915081111561029a57506006545b6000546102b390839083906001600160a01b031661034a565b5050565b6004544211156102c657600080fd5b6000806102d23461031a565b60065491935091508111156102e657600080fd5b600754341015806102f8575060065481145b61030157600080fd5b6001546102b390839083906001600160a01b031661034a565b60008061032a6006546002610417565b91508183101561033957600080fd5b610343828461050e565b9050915091565b600061035e6103598486610525565b61043d565b90508260066000828254610372919061050e565b90915550506005546004805460009061038c908490610525565b909155505060085460405163a9059cbb60e01b81526001600160a01b038481166004830152602482018490529091169063a9059cbb906044016020604051808303816000875af11580156103e4573d6000803e3d6000fd5b505050506040513d601f19601f8201168201806040525081019061040891906104d6565b61041157600080fd5b50505050565b600181015481546000919061042c908561053d565b610436919061055c565b9392505050565b6000808260095461044e919061053d565b9050826009548261045f919061055c565b146104b05760405162461bcd60e51b815260206004820152601760248201527f7061796d656e7420636175736573206f766572666c6f77000000000000000000604482015260640160405180910390fd5b600754610436908261055c565b6000602082840312156104cf57600080fd5b5051919050565b6000602082840312156104e857600080fd5b8151801515811461043657600080fd5b634e487b7160e01b600052601160045260246000fd5b600082821015610520576105206104f8565b500390565b60008219821115610538576105386104f8565b500190565b6000816000190483118215151615610557576105576104f8565b500290565b60008261057957634e487b7160e01b600052601260045260246000fd5b50049056fea2646970667358221220e94234849fdfd111cae008ecbc699b78bc96e29cc823c6c0d852b68527fc862564736f6c634300080b0033",
    "sourcePath": "c:/Users/H4NKYUL/Documents/sprint-project/solidity-project/contracts/PeriodicLoan.sol",
    "compiler": {
        "name": "solc",
        "version": "0.8.11+commit.d7f03943"
    },
    "functionHashes": {
        "dueDate()": "786716fe",
        "interestRate()": "7c3a00fd",
        "makePayment()": "d8d79700",
        "missedPayment()": "c7d5f598",
        "remainingBalance()": "da25de3c",
        "returnCollateral()": "44ed456f",
        "withdraw()": "3ccfd60b"
    },
    "gasEstimates": {
        "creation": {
            "codeDepositCost": "292000",
            "executionCost": "infinite",
            "totalCost": "infinite"
        },
        "external": {
            "dueDate()": "2329",
            "interestRate()": "4428",
            "makePayment()": "infinite",
            "missedPayment()": "infinite",
            "remainingBalance()": "2350",
            "returnCollateral()": "infinite",
            "withdraw()": "infinite"
        },
        "internal": {
            "calculateCollateral(uint256)": "infinite",
            "calculateComponents(uint256)": "6653",
            "multiply(uint256,struct PeriodicLoan.Rational storage pointer)": "4394",
            "processPeriod(uint256,uint256,address)": "infinite"
        }
    }
}