{
    "contractName": "TokenSale",
    "abi": [
        {
            "inputs": [
                {
                    "internalType": "contract IERC20Token",
                    "name": "_tokenContract",
                    "type": "address"
                },
                {
                    "internalType": "uint256",
                    "name": "_price",
                    "type": "uint256"
                }
            ],
            "stateMutability": "nonpayable",
            "type": "constructor"
        },
        {
            "anonymous": false,
            "inputs": [
                {
                    "indexed": false,
                    "internalType": "address",
                    "name": "buyer",
                    "type": "address"
                },
                {
                    "indexed": false,
                    "internalType": "uint256",
                    "name": "amount",
                    "type": "uint256"
                }
            ],
            "name": "Sold",
            "type": "event"
        },
        {
            "inputs": [
                {
                    "internalType": "uint256",
                    "name": "numberOfTokens",
                    "type": "uint256"
                }
            ],
            "name": "buyTokens",
            "outputs": [],
            "stateMutability": "payable",
            "type": "function"
        },
        {
            "inputs": [],
            "name": "endSale",
            "outputs": [],
            "stateMutability": "nonpayable",
            "type": "function"
        },
        {
            "inputs": [],
            "name": "price",
            "outputs": [
                {
                    "internalType": "uint256",
                    "name": "",
                    "type": "uint256"
                }
            ],
            "stateMutability": "view",
            "type": "function"
        },
        {
            "inputs": [],
            "name": "tokenContract",
            "outputs": [
                {
                    "internalType": "contract IERC20Token",
                    "name": "",
                    "type": "address"
                }
            ],
            "stateMutability": "view",
            "type": "function"
        },
        {
            "inputs": [],
            "name": "tokensSold",
            "outputs": [
                {
                    "internalType": "uint256",
                    "name": "",
                    "type": "uint256"
                }
            ],
            "stateMutability": "view",
            "type": "function"
        }
    ],
    "bytecode": "608060405234801561001057600080fd5b5060405161071038038061071083398101604081905261002f91610066565b60028054336001600160a01b031991821617909155600080549091166001600160a01b0393909316929092179091556001556100a0565b6000806040838503121561007957600080fd5b82516001600160a01b038116811461009057600080fd5b6020939093015192949293505050565b610661806100af6000396000f3fe60806040526004361061004a5760003560e01c80633610724e1461004f578063380d831b14610064578063518ab2a81461007957806355a373d6146100a2578063a035b1fe146100da575b600080fd5b61006261005d36600461045b565b6100f0565b005b34801561007057600080fd5b506100626102e4565b34801561008557600080fd5b5061008f60035481565b6040519081526020015b60405180910390f35b3480156100ae57600080fd5b506000546100c2906001600160a01b031681565b6040516001600160a01b039091168152602001610099565b3480156100e657600080fd5b5061008f60015481565b6100fc8160015461041d565b341461010757600080fd5b60006101948260008054906101000a90046001600160a01b03166001600160a01b031663313ce5676040518163ffffffff1660e01b81526004016020604051808303816000875af1158015610160573d6000803e3d6000fd5b505050506040513d601f19601f820116820180604052508101906101849190610474565b61018f90600a610587565b61041d565b6000546040516370a0823160e01b815230600482015291925082916001600160a01b03909116906370a08231906024016020604051808303816000875af11580156101e3573d6000803e3d6000fd5b505050506040513d601f19601f820116820180604052508101906102079190610474565b101561021257600080fd5b60408051338152602081018490527fae92ab4b6f8f401ead768d3273e6bb937a13e39827d19c6376e8fd4512a05d9a910160405180910390a1816003600082825461025d919061059a565b909155505060005460405163a9059cbb60e01b8152336004820152602481018390526001600160a01b039091169063a9059cbb906044016020604051808303816000875af11580156102b3573d6000803e3d6000fd5b505050506040513d601f19601f820116820180604052508101906102d791906105b2565b6102e057600080fd5b5050565b6002546001600160a01b031633146102fb57600080fd5b6000546002546040516370a0823160e01b81523060048201526001600160a01b039283169263a9059cbb92169083906370a08231906024016020604051808303816000875af1158015610352573d6000803e3d6000fd5b505050506040513d601f19601f820116820180604052508101906103769190610474565b6040516001600160e01b031960e085901b1681526001600160a01b03909216600483015260248201526044016020604051808303816000875af11580156103c1573d6000803e3d6000fd5b505050506040513d601f19601f820116820180604052508101906103e591906105b2565b6103ee57600080fd5b60405133904780156108fc02916000818181858888f1935050505015801561041a573d6000803e3d6000fd5b50565b60008261042c57506000610455565b600061043883856105d4565b90508261044585836105f3565b1461045257610452610615565b90505b92915050565b60006020828403121561046d57600080fd5b5035919050565b60006020828403121561048657600080fd5b5051919050565b634e487b7160e01b600052601160045260246000fd5b600181815b808511156104de5781600019048211156104c4576104c461048d565b808516156104d157918102915b93841c93908002906104a8565b509250929050565b6000826104f557506001610455565b8161050257506000610455565b816001811461051857600281146105225761053e565b6001915050610455565b60ff8411156105335761053361048d565b50506001821b610455565b5060208310610133831016604e8410600b8410161715610561575081810a610455565b61056b83836104a3565b806000190482111561057f5761057f61048d565b029392505050565b600061059383836104e6565b9392505050565b600082198211156105ad576105ad61048d565b500190565b6000602082840312156105c457600080fd5b8151801515811461059357600080fd5b60008160001904831182151516156105ee576105ee61048d565b500290565b60008261061057634e487b7160e01b600052601260045260246000fd5b500490565b634e487b7160e01b600052600160045260246000fdfea2646970667358221220c2170bda72b83ab53a562662d51d7fa68c5653f2b1861617c7062aac17f54f9264736f6c634300080b0033",
    "sourcePath": "c:/Users/H4NKYUL/Documents/sprint-project/solidity-project/contracts/TokenSale.sol",
    "compiler": {
        "name": "solc",
        "version": "0.8.11+commit.d7f03943"
    },
    "functionHashes": {
        "buyTokens(uint256)": "3610724e",
        "endSale()": "380d831b",
        "price()": "a035b1fe",
        "tokenContract()": "55a373d6",
        "tokensSold()": "518ab2a8"
    },
    "gasEstimates": {
        "creation": {
            "codeDepositCost": "326600",
            "executionCost": "infinite",
            "totalCost": "infinite"
        },
        "external": {
            "buyTokens(uint256)": "infinite",
            "endSale()": "infinite",
            "price()": "2350",
            "tokenContract()": "2381",
            "tokensSold()": "2306"
        },
        "internal": {
            "safeMultiply(uint256,uint256)": "251"
        }
    }
}